{
	"data": {
		"bytecode": {
			"linkReferences": {},
			"object": "6080604052348015600e575f80fd5b506102ca8061001c5f395ff3fe608060405234801561000f575f80fd5b5060043610610029575f3560e01c8063e55c01f81461002d575b5f80fd5b61004760048036038101906100429190610143565b610049565b005b5f600590505f8083121561006857828261006391906101ae565b61006a565b825b90505f811215801561007b57508181125b6100ba576040517f08c379a00000000000000000000000000000000000000000000000000000000081526004016100b190610249565b60405180910390fd5b835f82600581106100ce576100cd610267565b5b018190555050505050565b5f80fd5b5f819050919050565b6100ef816100dd565b81146100f9575f80fd5b50565b5f8135905061010a816100e6565b92915050565b5f819050919050565b61012281610110565b811461012c575f80fd5b50565b5f8135905061013d81610119565b92915050565b5f8060408385031215610159576101586100d9565b5b5f610166858286016100fc565b92505060206101778582860161012f565b9150509250929050565b7f4e487b71000000000000000000000000000000000000000000000000000000005f52601160045260245ffd5b5f6101b882610110565b91506101c383610110565b92508282019050828112155f8312168382125f8412151617156101e9576101e8610181565b5b92915050565b5f82825260208201905092915050565b7f496e646578206f7574206f6620626f756e6400000000000000000000000000005f82015250565b5f6102336012836101ef565b915061023e826101ff565b602082019050919050565b5f6020820190508181035f83015261026081610227565b9050919050565b7f4e487b71000000000000000000000000000000000000000000000000000000005f52603260045260245ffdfea2646970667358221220000f5bde238fb93b4d0bd7990bc02286b6a251c1e980b3477f92d8891f233f0b64736f6c634300081a0033",
			"opcodes": "PUSH1 0x80 PUSH1 0x40 MSTORE CALLVALUE DUP1 ISZERO PUSH1 0xE JUMPI PUSH0 DUP1 REVERT JUMPDEST POP PUSH2 0x2CA DUP1 PUSH2 0x1C PUSH0 CODECOPY PUSH0 RETURN INVALID PUSH1 0x80 PUSH1 0x40 MSTORE CALLVALUE DUP1 ISZERO PUSH2 0xF JUMPI PUSH0 DUP1 REVERT JUMPDEST POP PUSH1 0x4 CALLDATASIZE LT PUSH2 0x29 JUMPI PUSH0 CALLDATALOAD PUSH1 0xE0 SHR DUP1 PUSH4 0xE55C01F8 EQ PUSH2 0x2D JUMPI JUMPDEST PUSH0 DUP1 REVERT JUMPDEST PUSH2 0x47 PUSH1 0x4 DUP1 CALLDATASIZE SUB DUP2 ADD SWAP1 PUSH2 0x42 SWAP2 SWAP1 PUSH2 0x143 JUMP JUMPDEST PUSH2 0x49 JUMP JUMPDEST STOP JUMPDEST PUSH0 PUSH1 0x5 SWAP1 POP PUSH0 DUP1 DUP4 SLT ISZERO PUSH2 0x68 JUMPI DUP3 DUP3 PUSH2 0x63 SWAP2 SWAP1 PUSH2 0x1AE JUMP JUMPDEST PUSH2 0x6A JUMP JUMPDEST DUP3 JUMPDEST SWAP1 POP PUSH0 DUP2 SLT ISZERO DUP1 ISZERO PUSH2 0x7B JUMPI POP DUP2 DUP2 SLT JUMPDEST PUSH2 0xBA JUMPI PUSH1 0x40 MLOAD PUSH32 0x8C379A000000000000000000000000000000000000000000000000000000000 DUP2 MSTORE PUSH1 0x4 ADD PUSH2 0xB1 SWAP1 PUSH2 0x249 JUMP JUMPDEST PUSH1 0x40 MLOAD DUP1 SWAP2 SUB SWAP1 REVERT JUMPDEST DUP4 PUSH0 DUP3 PUSH1 0x5 DUP2 LT PUSH2 0xCE JUMPI PUSH2 0xCD PUSH2 0x267 JUMP JUMPDEST JUMPDEST ADD DUP2 SWAP1 SSTORE POP POP POP POP POP JUMP JUMPDEST PUSH0 DUP1 REVERT JUMPDEST PUSH0 DUP2 SWAP1 POP SWAP2 SWAP1 POP JUMP JUMPDEST PUSH2 0xEF DUP2 PUSH2 0xDD JUMP JUMPDEST DUP2 EQ PUSH2 0xF9 JUMPI PUSH0 DUP1 REVERT JUMPDEST POP JUMP JUMPDEST PUSH0 DUP2 CALLDATALOAD SWAP1 POP PUSH2 0x10A DUP2 PUSH2 0xE6 JUMP JUMPDEST SWAP3 SWAP2 POP POP JUMP JUMPDEST PUSH0 DUP2 SWAP1 POP SWAP2 SWAP1 POP JUMP JUMPDEST PUSH2 0x122 DUP2 PUSH2 0x110 JUMP JUMPDEST DUP2 EQ PUSH2 0x12C JUMPI PUSH0 DUP1 REVERT JUMPDEST POP JUMP JUMPDEST PUSH0 DUP2 CALLDATALOAD SWAP1 POP PUSH2 0x13D DUP2 PUSH2 0x119 JUMP JUMPDEST SWAP3 SWAP2 POP POP JUMP JUMPDEST PUSH0 DUP1 PUSH1 0x40 DUP4 DUP6 SUB SLT ISZERO PUSH2 0x159 JUMPI PUSH2 0x158 PUSH2 0xD9 JUMP JUMPDEST JUMPDEST PUSH0 PUSH2 0x166 DUP6 DUP3 DUP7 ADD PUSH2 0xFC JUMP JUMPDEST SWAP3 POP POP PUSH1 0x20 PUSH2 0x177 DUP6 DUP3 DUP7 ADD PUSH2 0x12F JUMP JUMPDEST SWAP2 POP POP SWAP3 POP SWAP3 SWAP1 POP JUMP JUMPDEST PUSH32 0x4E487B7100000000000000000000000000000000000000000000000000000000 PUSH0 MSTORE PUSH1 0x11 PUSH1 0x4 MSTORE PUSH1 0x24 PUSH0 REVERT JUMPDEST PUSH0 PUSH2 0x1B8 DUP3 PUSH2 0x110 JUMP JUMPDEST SWAP2 POP PUSH2 0x1C3 DUP4 PUSH2 0x110 JUMP JUMPDEST SWAP3 POP DUP3 DUP3 ADD SWAP1 POP DUP3 DUP2 SLT ISZERO PUSH0 DUP4 SLT AND DUP4 DUP3 SLT PUSH0 DUP5 SLT ISZERO AND OR ISZERO PUSH2 0x1E9 JUMPI PUSH2 0x1E8 PUSH2 0x181 JUMP JUMPDEST JUMPDEST SWAP3 SWAP2 POP POP JUMP JUMPDEST PUSH0 DUP3 DUP3 MSTORE PUSH1 0x20 DUP3 ADD SWAP1 POP SWAP3 SWAP2 POP POP JUMP JUMPDEST PUSH32 0x496E646578206F7574206F6620626F756E640000000000000000000000000000 PUSH0 DUP3 ADD MSTORE POP JUMP JUMPDEST PUSH0 PUSH2 0x233 PUSH1 0x12 DUP4 PUSH2 0x1EF JUMP JUMPDEST SWAP2 POP PUSH2 0x23E DUP3 PUSH2 0x1FF JUMP JUMPDEST PUSH1 0x20 DUP3 ADD SWAP1 POP SWAP2 SWAP1 POP JUMP JUMPDEST PUSH0 PUSH1 0x20 DUP3 ADD SWAP1 POP DUP2 DUP2 SUB PUSH0 DUP4 ADD MSTORE PUSH2 0x260 DUP2 PUSH2 0x227 JUMP JUMPDEST SWAP1 POP SWAP2 SWAP1 POP JUMP JUMPDEST PUSH32 0x4E487B7100000000000000000000000000000000000000000000000000000000 PUSH0 MSTORE PUSH1 0x32 PUSH1 0x4 MSTORE PUSH1 0x24 PUSH0 REVERT INVALID LOG2 PUSH5 0x6970667358 0x22 SLT KECCAK256 STOP 0xF JUMPDEST 0xDE 0x23 DUP16 0xB9 EXTCODESIZE 0x4D SIGNEXTEND 0xD7 SWAP10 SIGNEXTEND 0xC0 0x22 DUP7 0xB6 LOG2 MLOAD 0xC1 0xE9 DUP1 0xB3 SELFBALANCE PUSH32 0x92D8891F233F0B64736F6C634300081A00330000000000000000000000000000 "
		},
		"gasEstimates": {
			"creation": {
				"codeDepositCost": "142800",
				"executionCost": "188",
				"totalCost": "142988"
			},
			"external": {
				"insertElements(uint256,int256)": "infinite"
			}
		},
		"methodIdentifiers": {
			"insertElements(uint256,int256)": "e55c01f8"
		}
	},
	"abi": [
		{
			"inputs": [
				{
					"internalType": "uint256",
					"name": "_data",
					"type": "uint256"
				},
				{
					"internalType": "int256",
					"name": "_ind",
					"type": "int256"
				}
			],
			"name": "insertElements",
			"outputs": [],
			"stateMutability": "nonpayable",
			"type": "function"
		}
	]
}